{
  "_format": "hh-sol-artifact-1",
  "contractName": "BuyMeACoffee",
  "sourceName": "contracts/BuyMeACoffee.sol",
  "abi": [
    {
      "inputs": [],
      "stateMutability": "nonpayable",
      "type": "constructor"
    },
    {
      "anonymous": false,
      "inputs": [
        {
          "indexed": true,
          "internalType": "address",
          "name": "from",
          "type": "address"
        },
        {
          "indexed": false,
          "internalType": "uint256",
          "name": "timestamp",
          "type": "uint256"
        },
        {
          "indexed": false,
          "internalType": "string",
          "name": "name",
          "type": "string"
        },
        {
          "indexed": false,
          "internalType": "string",
          "name": "message",
          "type": "string"
        }
      ],
      "name": "NewMemo",
      "type": "event"
    },
    {
      "inputs": [
        {
          "internalType": "string",
          "name": "_name",
          "type": "string"
        },
        {
          "internalType": "string",
          "name": "_message",
          "type": "string"
        }
      ],
      "name": "buyCoffee",
      "outputs": [],
      "stateMutability": "payable",
      "type": "function"
    },
    {
      "inputs": [
        {
          "internalType": "string",
          "name": "_name",
          "type": "string"
        },
        {
          "internalType": "string",
          "name": "_message",
          "type": "string"
        }
      ],
      "name": "buyLargeCoffee",
      "outputs": [],
      "stateMutability": "payable",
      "type": "function"
    },
    {
      "inputs": [
        {
          "internalType": "address payable",
          "name": "_to",
          "type": "address"
        }
      ],
      "name": "changeWithdrawalAddress",
      "outputs": [],
      "stateMutability": "nonpayable",
      "type": "function"
    },
    {
      "inputs": [],
      "name": "getMemos",
      "outputs": [
        {
          "components": [
            {
              "internalType": "address",
              "name": "from",
              "type": "address"
            },
            {
              "internalType": "uint256",
              "name": "timestamp",
              "type": "uint256"
            },
            {
              "internalType": "string",
              "name": "name",
              "type": "string"
            },
            {
              "internalType": "string",
              "name": "message",
              "type": "string"
            }
          ],
          "internalType": "struct BuyMeACoffee.Memo[]",
          "name": "",
          "type": "tuple[]"
        }
      ],
      "stateMutability": "view",
      "type": "function"
    },
    {
      "inputs": [],
      "name": "owner",
      "outputs": [
        {
          "internalType": "address payable",
          "name": "",
          "type": "address"
        }
      ],
      "stateMutability": "view",
      "type": "function"
    },
    {
      "inputs": [],
      "name": "withdrawTips",
      "outputs": [],
      "stateMutability": "nonpayable",
      "type": "function"
    },
    {
      "inputs": [],
      "name": "withdrawalAddress",
      "outputs": [
        {
          "internalType": "address payable",
          "name": "",
          "type": "address"
        }
      ],
      "stateMutability": "view",
      "type": "function"
    }
  ],
  "bytecode": "0x608060405234801561001057600080fd5b5060008054336001600160a01b03199182168117835560018054909216179055610af690819061004090396000f3fe6080604052600436106100705760003560e01c8063417f9ea91161004e578063417f9ea9146100bf578063865c5172146100d25780638da5cb5b146100fd578063f2bcd0221461013557600080fd5b80631f4e2a5314610075578063204206e1146100975780633aaa74b2146100aa575b600080fd5b34801561008157600080fd5b50610095610090366004610715565b610155565b005b6100956100a53660046107e8565b610248565b3480156100b657600080fd5b506100956103dc565b6100956100cd366004610895565b610410565b3480156100de57600080fd5b506100e76104d9565b6040516100f4919061094e565b60405180910390f35b34801561010957600080fd5b5060005461011d906001600160a01b031681565b6040516001600160a01b0390911681526020016100f4565b34801561014157600080fd5b5060015461011d906001600160a01b031681565b6000546001600160a01b031633146101d05760405162461bcd60e51b815260206004820152603360248201527f4f6e6c7920636f6e74726163742773206f776e65722063616e206368616e6765604482015272207769746864726177616c206164647265737360681b60648201526084015b60405180910390fd5b6001600160a01b0381166102265760405162461bcd60e51b815260206004820152601a60248201527f496e76616c6964207769746864726177616c206164647265737300000000000060448201526064016101c7565b600180546001600160a01b0319166001600160a01b0392909216919091179055565b600034116102985760405162461bcd60e51b815260206004820152601a60248201527f63616e27742062757920636f6666656520666f7220667265652100000000000060448201526064016101c7565b604080516080810182523381524260208083019182529282018581526060830185905260028054600181018255600091909152835160049091027f405787fa12a823e0f2b7631cc41b3ba8828b3321ca811111fa75cd3aa3bb5ace810180546001600160a01b03939093166001600160a01b031990931692909217825592517f405787fa12a823e0f2b7631cc41b3ba8828b3321ca811111fa75cd3aa3bb5acf8401559051805193949193610374937f405787fa12a823e0f2b7631cc41b3ba8828b3321ca811111fa75cd3aa3bb5ad00192919091019061067c565b506060820151805161039091600384019160209091019061067c565b505050336001600160a01b03167fc56140e05f516509ae28110e0f72e17558a7561630dad2647c3ae87d986e365c4284846040516103d0939291906109f5565b60405180910390a25050565b600080546040516001600160a01b03909116914780156108fc02929091818181858888f1935050505061040e57600080fd5b565b34660aa87bee538000146104765760405162461bcd60e51b815260206004820152602760248201527f4c6172676520636f666665652072657175697265732065786163746c7920302e6044820152660606066408aa8960cb1b60648201526084016101c7565b60405163204206e160e01b8152309063204206e19034906104a1908890889088908890600401610a53565b6000604051808303818588803b1580156104ba57600080fd5b505af11580156104ce573d6000803e3d6000fd5b505050505050505050565b60606002805480602002602001604051908101604052809291908181526020016000905b82821015610673576000848152602090819020604080516080810182526004860290920180546001600160a01b031683526001810154938301939093526002830180549293929184019161055090610a85565b80601f016020809104026020016040519081016040528092919081815260200182805461057c90610a85565b80156105c95780601f1061059e576101008083540402835291602001916105c9565b820191906000526020600020905b8154815290600101906020018083116105ac57829003601f168201915b505050505081526020016003820180546105e290610a85565b80601f016020809104026020016040519081016040528092919081815260200182805461060e90610a85565b801561065b5780601f106106305761010080835404028352916020019161065b565b820191906000526020600020905b81548152906001019060200180831161063e57829003601f168201915b505050505081525050815260200190600101906104fd565b50505050905090565b82805461068890610a85565b90600052602060002090601f0160209004810192826106aa57600085556106f0565b82601f106106c357805160ff19168380011785556106f0565b828001600101855582156106f0579182015b828111156106f05782518255916020019190600101906106d5565b506106fc929150610700565b5090565b5b808211156106fc5760008155600101610701565b60006020828403121561072757600080fd5b81356001600160a01b038116811461073e57600080fd5b9392505050565b634e487b7160e01b600052604160045260246000fd5b600082601f83011261076c57600080fd5b813567ffffffffffffffff8082111561078757610787610745565b604051601f8301601f19908116603f011681019082821181831017156107af576107af610745565b816040528381528660208588010111156107c857600080fd5b836020870160208301376000602085830101528094505050505092915050565b600080604083850312156107fb57600080fd5b823567ffffffffffffffff8082111561081357600080fd5b61081f8683870161075b565b9350602085013591508082111561083557600080fd5b506108428582860161075b565b9150509250929050565b60008083601f84011261085e57600080fd5b50813567ffffffffffffffff81111561087657600080fd5b60208301915083602082850101111561088e57600080fd5b9250929050565b600080600080604085870312156108ab57600080fd5b843567ffffffffffffffff808211156108c357600080fd5b6108cf8883890161084c565b909650945060208701359150808211156108e857600080fd5b506108f58782880161084c565b95989497509550505050565b6000815180845260005b818110156109275760208185018101518683018201520161090b565b81811115610939576000602083870101525b50601f01601f19169290920160200192915050565b60006020808301818452808551808352604092508286019150828160051b87010184880160005b838110156109e757888303603f19018552815180516001600160a01b031684528781015188850152868101516080888601819052906109b682870182610901565b915050606080830151925085820381870152506109d38183610901565b968901969450505090860190600101610975565b509098975050505050505050565b838152606060208201526000610a0e6060830185610901565b8281036040840152610a208185610901565b9695505050505050565b81835281816020850137506000828201602090810191909152601f909101601f19169091010190565b604081526000610a67604083018688610a2a565b8281036020840152610a7a818587610a2a565b979650505050505050565b600181811c90821680610a9957607f821691505b60208210811415610aba57634e487b7160e01b600052602260045260246000fd5b5091905056fea2646970667358221220338043c39cfd89ce81c924a2e79e183433df977cb34003d5a2b6688fe0dc44f664736f6c63430008090033",
  "linkReferences": {},
  "deployedLinkReferences": {}
}